:100000000C9485000C94A2000C94A2000C94A20005
:100010000C9443020C94A2000C94A2000C94A20035
:100020000C94A2000C94A2000C94A2000C94A200C8
:100030000C94A2000C94A2000C941E020C94A2003A
:100040000C94A2000C94A2000C943B040C94A2000B
:100050000C94A2000C94A2000C94A2000C94A20098
:100060000C9481010C94A200C3019901990199019A
:100070009901990199019901C30199019901990186
:100080009901990199019901DB019901990199015E
:100090009901990199019901990199019901990190
:1000A0009901990199019901DB019901990199013E
:1000B0009901990199019901990199019901990170
:1000C0009901990199019901DE019901990199011B
:1000D0009901990199019901E20199019901990107
:1000E0009901990199019901990199019901990140
:1000F0009901990199019901F001990199019901D9
:100100009901990199019901B10111241FBECFEF05
:10011000D8E0DEBFCDBF11E0A0E0B1E0E4E0F9E05F
:1001200002C005900D92AE31B107D9F721E0AEE1E2
:10013000B1E001C01D92AD35B207E1F70E94770230
:100140000C9480040C947102EEE1F1E010821382B1
:1001500012821182089510921E01089524E0829F58
:10016000C0011124FC01E25EFE4F6083089524E08B
:10017000829FC0011124FC01E25EFE4F8081089540
:1001800024E0829FC0011124FC01E25EFE4F8381C6
:10019000089510922101882321F080911F018B3452
:1001A000F0F080912001882389F080911E019091C8
:1001B0001F018823C1F09B3431F492E09093210118
:1001C0009CE490931F0180932001089580911E016B
:1001D0008823C9F310921F018093200108958F5F37
:1001E00080931F01DECF95509634A0F791E0909355
:1001F0002101F0CF8CE08093B80084E08093BC00B4
:1002000088B1806388B91092260110922501089563
:100210008091BC0081700895809100010895AC0127
:10022000892BD1F08DE08A95F1F7000091E031E063
:1002300084E007C09F5F2DE02A95F1F70000993C0C
:1002400060F42091BC0020FDF5CF5093260140932F
:10025000250160932401089508953093000180934F
:10026000BC00EFCF8091250190912601892BE1F010
:100270008DE08A95F1F7000081E031E024E007C0CD
:100280008F5F9DE09A95F1F70000893C70F49091A2
:10029000BC0090FDF5CF1092230188EF8093000100
:1002A00085EA8093BC00089508953093000120935F
:1002B000BC00EDCF8DE08A95F1F7000081E031E0E0
:1002C00024E007C08F5F9DE09A95F1F70000893C1C
:1002D00098F49091BC0090FDF5CF8091230181119D
:1002E0000AC020912701309128012F5F3F4F3093A2
:1002F0002801209327010895309300012093BC002A
:10030000E8CF1F920F920FB60F9211242F933F93B5
:100310008F939F93AF93BF93EF93FF938091B90017
:10032000E82FE87F8E2F90E0FC013897E135F1054A
:10033000A0F08091B9008093000184E08093BC001C
:10034000FF91EF91BF91AF919F918F913F912F912D
:100350000F900FBE0F901F901895EC5CFF4F0C9400
:100360007A048091BB0090912201E0912501F091E7
:100370002601E90FF11D808381E08093230184E948
:100380008093BC00DDCF1092220180E09091240187
:10039000891790F7E0912501F091260191E0980FDF
:1003A00090932201E80FF11D80818093BB0085E8C6
:1003B0008093BC00C5CF80912201E8CF85EA80936D
:1003C000BC00BECF2091220130E08091240190E05A
:1003D000019728173907DCF485EC8093BC00B0CF77
:1003E000E0912501F09126018091220121E0280F62
:1003F000209322019091BB00E80FF11D908330E023
:100400008091240190E00197281739072CF385E8A3
:100410008093BC0095CFE8E6F0E080818260808325
:10042000ECE6F0E08081806280830895811103C052
:1004300025982D980895259A2D9A08951F920F9228
:100440000FB60F9211248F939F93AF93BF93809118
:100450002B0190912C01A0912D01B0912E010196BC
:10046000A11DB11D80932B0190932C01A0932D0110
:10047000B0932E01BF91AF919F918F910F900FBEBE
:100480000F901F9018951F920F920FB60F92112484
:100490002F933F934F935F936F937F938F939F938C
:1004A000AF93BF93EF93FF9342E060E070E0CB0126
:1004B0000E94CC0343E060E070E0CB010E94CC03DB
:1004C000FF91EF91BF91AF919F918F917F916F912C
:1004D0005F914F913F912F910F900FBE0F901F9002
:1004E00018951F920F920FB60F921124FFCFCF9342
:1004F000DF93CDB7DEB727970FB6F894DEBF0FBEF8
:10050000CDBFF894809164008160809364008091F5
:1005100064008460809364008091640088608093AC
:100520006400809164008064809364008CE787BDE0
:1005300082E084BD93E095BD80936E0040E060E072
:1005400070E0CB010E94CC0341E060E070E0CB01A1
:100550000E94CC0342E060E070E0CB010E94CC033B
:1005600043E060E070E0CB010E94CC0352985A9ABD
:100570000E940B02789401E0EBE29E2EF9E1AF2E8F
:10058000A3E1BA2EB8E3CB2E1DE0D12E2AE6E22E4F
:1005900030E1432E45E4F42E5DE2852E55245A9435
:1005A0006AE5662E71E2772E09C043E060E375E7E5
:1005B00080E090E00E94CC03811185C069B162FBAC
:1005C000662760F9602780E00E94AE0041E06AE0A3
:1005D00070E080E090E00E94CC030E94C90080E0BF
:1005E0000E94C000813009F45FC042E066E070E024
:1005F00080E090E00E94CC038823B9F29091290119
:1006000080912A01981789F2809168008D7F8093EC
:10061000680080916C008F7D80936C000E94FA00CE
:1006200088B18F7C88B910912901C982DA821B8236
:10063000EC821D821E821F8367E0CE0101960E941C
:100640000F010E9432010E945A01DA824B82FC8221
:10065000193109F48EC01B3209F487C0133109F433
:1006600080C066E0CE0101960E940F010E94320117
:100670000E945A01193179F4DA824B828C8287E028
:100680008D831E8266E0CE0101960E940F010E94BA
:1006900032010E945A011092BC000E940B0280910C
:1006A000290180932A0181CF80912A01909129010B
:1006B00089139BCF833109F46CC0893109F066C07E
:1006C000B092290192CF10E099E1E92EF12C812F0F
:1006D00081700E9416028FE493EC0197F1F700C03D
:1006E000000091E0E91AF1081F5F1170E114F104B4
:1006F00071F783B7817F846083BFF89483B781608B
:1007000083BF7894889583B78E7F83BF42E060E093
:1007100070E0CB010E94CC0343E060E070E0CB01CD
:100720000E94CC0380912A018093290110E08FE080
:10073000E82EF12C812F81700E9416022FEB84EDA0
:1007400091E0215080409040E1F700C0000021E09E
:10075000E21AF1081F5F1170E114F10459F778945F
:1007600015CF87E08D837E828DCF86E08D836E826C
:1007700089CF87E08D835E8266E0CE0101960E947C
:100780000F010E9432010E945A0176CFA0922901E6
:100790002CCF9092290129CF8F929F92AF92BF9236
:1007A000CF92DF92EF92FF926B017C012FB7F8940A
:1007B00080912B0190912C01A0912D01B0912E01DF
:1007C000E42FF0E0EE0FFF1FEE0FFF1FEF5CFE4F78
:1007D000C114D104E104F10479F480839183A283EC
:1007E000B38380E02FBFFF90EF90DF90CF90BF905A
:1007F000AF909F908F900895408151816281738165
:100800004C015D01841A950AA60AB70A8C149D044E
:10081000AE04BF0430F080839183A283B38381E070
:10082000E1CF80E0DFCF9091C00095FFFCCF8093B7
:10083000C60008958091C00087FFFCCF8091C6005C
:100840000895E4E6F0E080818D7F8083E0ECF0E0C5
:1008500080818D7F80831092C50083E38093C400E4
:1008600086E08093C200E1ECF0E088E18083808143
:100870008068808308951F920F920FB60F92112403
:100880002F933F934F935F936F937F938F939F9398
:10089000AF93BF93EF93FF93E0912F01F09130015D
:1008A000309719F08091C6000995FF91EF91BF91A3
:1008B000AF919F918F917F916F915F914F913F91F8
:1008C0002F910F900FBE0F901F90189590933001AD
:1008D00080932F010895FC012081222351F031964D
:1008E0009091C00095FFFCCF2093C600219121116B
:1008F000F7CF0895EE0FFF1F0590F491E02D0994B6
:04090000F894FFCF99
:10090400F8000000010000000000001A04000000CC
:0E0914000000020000000013040000000000BC
:00000001FF
